:020000040800F2
:1000000000200020B9000008511200086512000805
:1000100000000000000000000000000000000000E0
:100020000000000000000000000000005112000865
:1000300000000000000000005112000851120008EA
:100040005112000851120008511200085112000804
:1000500051120008511200085112000851120008F4
:10006000000000005112000851120008511200084F
:10007000511200085112000800000000511200083F
:100080000000000051120008000000000000000005
:10009000511200080000000051120008511200081F
:1000A000511200085112000851120008DD14000816
:1000B000511200085112000801F046F801F008F84A
:1000C000E1235B02180001F061F962B6C04600F05E
:1000D0008BFD024B180001F0C9FAFEE730850008DD
:1000E00080B582B000AF7860C0467B685A1E7A60E7
:1000F000002BFAD1C046C046BD4602B080BD80B5D7
:1001000000AF3D4BDA6A3C4B01210A43DA62A0237F
:10011000DB051B68032293431A00A023DB050121A2
:100120000A431A60A023DB055A68A023DB050121DE
:100130008A435A60A023DB051B680C2293431A00F4
:10014000A023DB0504210A431A60A023DB055A68BB
:10015000A023DB0502218A435A60A023DB051B682C
:10016000302293431A00A023DB0510210A431A60B2
:10017000A023DB055A68A023DB0504218A435A60CB
:10018000A023DB051B68C02293431A00A023DB05D4
:1001900040210A431A60A023DB055A68A023DB052F
:1001A00008218A435A60A023DB051B68134A1A40C2
:1001B000A023DB05802149000A431A60A023DB0548
:1001C0005A68A023DB0510218A435A60A023DB056F
:1001D0001B680B4A1A40A023DB058021C9000A4393
:1001E0001A60A023DB055A68A023DB0520218A437F
:1001F0005A60C046BD4680BD00100240FFFCFFFFB4
:10020000FFF3FFFF80B500AF0A4B0B4A5A60094B62
:1002100000229A60074B05221A60C046054B1A68F7
:1002200080235B021340F9D0024B00221A60C046C3
:10023000BD4680BD10E000E0FF7C000080B582B0CC
:1002400000AF786001E0FFF7DDFF7B685A1E7A603F
:10025000002BF8D1C046C046BD4602B080BD80B577
:1002600084B000AF786039607B685B0001330122A5
:100270009A401300FB607B685B0001229A401300E8
:10028000BB60A023DB051A68B968FB680B43D94340
:10029000A023DB050A401A603B68002B12D1A02383
:1002A000DB05DA68BB68D943A023DB050A40DA60C6
:1002B000A023DB05DA68FB68D943A023DB050A40ED
:1002C000DA6027E03B68012B11D1A023DB05D96858
:1002D000A023DB05BA680A43DA60A023DB05DA68ED
:1002E000FB68D943A023DB050A40DA6012E03B68D3
:1002F000022B0FD1A023DB05D968A023DB05BA6848
:100300000A43DA60A023DB05D968A023DB05FA687D
:100310000A43DA60C046BD4604B080BD80B588B0EF
:1003200000AFF860B9607A600122BB689A401E2075
:100330003B181A80BB685B00013301229A4013000E
:10034000BB61BB685B0001229A4013007B61FB68C4
:10035000002B1CD1A023DB051B68B9697A690A430D
:10036000D2431A401100A023DB057A690A431A60C0
:100370007B68002B27D1A023DB055A683B181B881C
:10038000DB431900A023DB050A405A601BE0FB6831
:10039000012B18D10E4B1B68B9697A690A43D24305
:1003A0001A4011000A4B7A690A431A607B68002BD5
:1003B00009D1074B5A681E23FB181B88DB43190021
:1003C000034B0A405A60C046BD4608B080BDC046D7
:1003D0000004005080B584B000AF78603A4B3B4ACF
:1003E0005A60394B394A9A60374B05221A6007E048
:1003F000354B1A6880235B02134001D000235EE076
:10040000A023DB051A6980235B001340F0D12E4B3B
:1004100000221A602C4B2D4A5A602B4B2B4A9A60B3
:10042000294B05221A6007E0274B1A6880235B02DC
:10043000134001D0002342E0A023DB051A6980238A
:100440005B001340F0D0204B00221A601E4B1F4A65
:100450005A601D4B1D4A9A601B4B05221A600023EF
:10046000FB6021E0184B1A6880235B02134001D027
:10047000002324E0A023DB051A6980235B001340DE
:10048000F0D107E0104B1A6880235B02134001D0C3
:10049000002314E0A023DB051A6980235B001340CE
:1004A000F0D0FB680133FB60FA687B689A42E1DBBD
:1004B000054B00221A60044B9B68044AD31A1800AB
:1004C000BD4604B080BDC04610E000E0FFFFFF0065
:1004D00090B585B000AFF860B9607A60134978686C
:1004E00001F04AFF031C191CBB689B00FA68D41872
:1004F000081C02F015FA03002360BB680133BB60DF
:100500000B4B01220121180001F066FC094B01226E
:100510000221180001F060FCFA239B001800FFF78D
:100520008DFEBB681800BD4605B090BD00007A4442
:10053000048300081483000880B586B000AFF8601B
:10054000B9607A60314B01220121180001F044FCAE
:100550002F4B01220221180001F03EFCA023DB05F5
:100560001A6980231B0113403BD1C046A023DB0541
:100570001A6980231B011340F8D0BA687B689A423D
:1005800012DC244B01220121180001F025FC224B32
:1005900001220221180001F01FFCFA239B00180021
:1005A000FFF74CFEBB682CE07B687B610DE07B694C
:1005B00001339B00FA68D2187B699B00F968CB185D
:1005C00012681A607B6901337B617B691C2BEEDD4D
:1005D000FB68783300221A60BB68013BBB60BB68D4
:1005E0000FE0A023DB051A6980239B011340B5D1DE
:1005F000C046A023DB051A6980239B011340F8D075
:10060000BB681800BD4606B080BDC0462483000804
:1006100034830008448300085483000880B584B004
:1006200000AF78600023FB600023FB601AE0FB68EA
:100630009B007A68D3181B68180003F015FC002291
:100640000C4B02F0DBF902000B000B49080004F030
:1006500067FD0A4B1B689B68180003F079FEFB6876
:100660000133FB60FB681D2BE1DDC046C046BD4683
:1006700004B080BD00408F40648300080400002067
:10068000B0B58CB002AF7860396000237B623B6804
:100690003B627B6A1C2B46DC7B6A5C1C7B6A9B0092
:1006A0007A68D3181B68180002F05AF9031C5D49D8
:1006B000181C01F049FD031C181C03F005FC020086
:1006C0000B0059490C25781900920193220004F07F
:1006D00093FD7B1901220121180001F07DFB7B6A4B
:1006E0009C1C7B6A01339B007A68D3181B68180036
:1006F00002F036F9031C4B49181C01F025FD031CC0
:10070000181C03F0E1FB02000B0048497819009225
:100710000193220004F070FD7B19012202211800D0
:1007200001F05AFB28E07B6A5C1C7B6A9B007A68BC
:10073000D3181B68180002F013F9031C3949181C60
:1007400001F002FD031C181C03F0BEFB02000B00AD
:1007500035490C25781900920193220004F04CFDD4
:100760007B1901220121180001F036FB304B0122D8
:100770000221180001F030FBA023DB051A69802359
:100780001B0113400DD1C046A023DB051A6980234D
:100790001B011340F8D07B6A002B02DD7B6A013B12
:1007A0007B62A023DB051A6980239B0113400DD1D6
:1007B000C046A023DB051A6980239B011340F8D0B3
:1007C0007B6A1C2B02DC7B6A01337B62A023DB0586
:1007D0001A6980231B0213400FD1C046A023DB05FA
:1007E0001A6980231B021340F8D07A6A396A7B6841
:1007F0001800FFF7A1FE03003B62A023DB051A6986
:1008000080235B01134000D043E7C046A023DB05F3
:100810001A6980235B011340F8D03B6A1800BD467B
:100820000AB0B0BD00007A446C83000880830008E1
:100830009483000880B590B000AF78603960624B57
:10084000180004F06DFC614B1B689B68180003F0F6
:100850007FFD2023FB181121180000F09AFF5B4B4D
:100860001B689B68180003F073FD0023FB631AE00C
:1008700020217A18FB6BD3181B780A2B04D17A1825
:10088000FB6BD31800221A7020217A18FB6BD31847
:100890001B780D2B04D17A18FB6BD31800221A7029
:1008A000FB6B0133FB63FB6B102BE1D90023BB63B4
:1008B00001237B632023FB18180004F00BFD0300C9
:1008C000013BFB6313E02023FA18FB6BD3181B7862
:1008D000303B7A6B5343BA6BD318BB637A6B13000C
:1008E0009B009B185B007B63FB6B013BFB63FB6B1B
:1008F000002BE8DA3B68BA6B1A60FA235B00180039
:10090000FFF79CFC324B180004F00AFC2F4B1B68CD
:100910009B68180003F01CFD0C23FB181121180024
:1009200000F037FF294B1B689B68180003F010FD8F
:100930000023FB631AE00C217A18FB6BD3181B7899
:100940000A2B04D17A18FB6BD31800221A700C21E1
:100950007A18FB6BD3181B780D2B04D17A18FB6B1C
:10096000D31800221A70FB6B0133FB63FB6B102B57
:10097000E1D90023BB6301237B630C23FB18180020
:1009800004F0A8FC0300013BFB6313E00C23FA18FE
:10099000FB6BD3181B78303B7A6B5343BA6BD3187D
:1009A000BB637A6B13009B009B185B007B63FB6B44
:1009B000013BFB63FB6B002BE8DA7B68BA6B1A60C8
:1009C000C046BD4610B080BD9883000804000020DA
:1009D000C483000890B58DB000AFF860B9607A604C
:1009E0003B600023FB620023BB62BB681A68454979
:1009F00014243B19180004F0FFFB3B1901220121CC
:100A0000180001F0E9F9FB681A683F493B19180022
:100A100004F0F2FB3B1901220221180001F0DCF97D
:100A2000A023DB051A6980231B0113401CD1C0469B
:100A3000A023DB051A6980231B011340F8D0BB6A91
:100A40000621180001F03CFB0B00052B02D100230E
:100A5000BB6202E0BB6A0133BB62BB6A9B003A68BF
:100A6000D3181A68BB681A60A023DB051A698023B3
:100A70009B0113401CD1C046A023DB051A698023CB
:100A80009B011340F8D0FB6A0521180001F018FB08
:100A90000B00042B02D10023FB6202E0FB6A01334E
:100AA000FB62FB6A9B007A68D3181A68FB681A60BD
:100AB000A023DB051A698023DB01134008D1C0465F
:100AC000A023DB051A698023DB011340F8D016E070
:100AD000A023DB051A6980231B02134000D084E7A2
:100AE000C046A023DB051A6980231B021340F8D0FF
:100AF000BA68FB6811001800FFF79CFE75E7BD4659
:100B00000DB090BDE8830008FC830008B0B586B046
:100B100000AFF860B9607A60786801F021FF031CCB
:100B2000191CF86801F04EFD031C5B005B08181CE3
:100B300003F0CAF900222A4B02F062FB02000B000C
:100B400014001D00786803F08FF902000B002000EC
:100B5000290001F053FF02000B001000190003F000
:100B60004DF903007B61786903F07EF900221D4B8B
:100B700001F044FF02000B0014001D00786803F030
:100B800073F902000B002000290001F0C9FA031ECE
:100B900011D0A023DB055A69A023DB0540218A433D
:100BA0005A61A023DB055A69A023DB0580210A4393
:100BB0005A61002310E0A023DB055A69A023DB055E
:100BC00040210A435A61A023DB055A69A023DB05B3
:100BD00080218A435A6101231800BD4606B0B0BD8A
:100BE00000408F4000002440F0B5B7B000AF342380
:100BF000FB18180078231A00002103F024FD0023BD
:100C0000D022BA1813600023CC22BA18136005232F
:100C10003B630123FB621823FB18C64A13CA13C3A4
:100C200003CA03C33B00C44A13CA13C313CA13C382
:100C3000FFF765FA01F0ABF8C04BDA6ABF4B012150
:100C40000A43DA6201210820FFF709FB01210F2086
:100C5000FFF705FB01210E20FFF701FB01210D200D
:100C6000FFF7FDFA01210C20FFF7F9FA01210B2013
:100C7000FFF7F5FA002206210020FFF74FFB0022C4
:100C800007210020FFF74AFBAD4B0122012118008C
:100C900001F0A2F896235B001800FFF7CFFAA94BEA
:100CA00001220221180001F097F8C8239B001800C8
:100CB000FFF7C4FA6420FFF78DFB0300C822B918C0
:100CC0000B60BB181B68002B00DC30E1BB181868F8
:100CD00003F0CAF800229C4B01F090FE02000B00CA
:100CE0001000190003F038F9031CC422B9180B6076
:100CF000BB181968FE20800501F026FA031CC022EB
:100D0000B9180B60BB18186803F0DEF802000B007E
:100D10008E488F4901F072FE02000B00100019008E
:100D20008C4A8D4B02F0D8FC02000B001000190019
:100D300003F012F9031CD422BA181360D022BB1896
:100D40001B68022B00D1C6E0BB181B68022B00DD1C
:100D50001CE1BB181B68002B04D0BB181B68012BBF
:100D60006DD013E17D4B01220121180001F034F810
:100D7000D423FB181B685B005B08181C03F0A4F865
:100D8000774A784B01F0B8F9031E23D0764B012245
:100D90000221180001F020F8744B0021180004F023
:100DA000BFF93423FB181800FFF738FC0A2004F0C1
:100DB000E1F9A023DB055A69A023DB0540218A4322
:100DC0005A61A023DB055A69A023DB0580210A4371
:100DD0005A61DCE0D4243B19186803F075F802006E
:100DE0000B006349AC25781904F006FA7B1901223F
:100DF0000221180000F0F0FF3B19186803F064F8B6
:100E000002000B005B49080004F08AF93423FB1848
:100E10001800FFF703FC0A2004F0ACF9A023DB055F
:100E20005A69A023DB0540218A435A61A023DB05D0
:100E30005A69A023DB0580218A435A61A7E04E4B03
:100E400001220121180000F0C7FF396BFA6ABF25A3
:100E50007C19D426BB191B68181CFFF757FE03002A
:100E600023707B191B7801225340DBB2002B0BD07F
:100E7000BB19186803F028F802000B003F49AC20AA
:100E8000381804F0B9F90BE0D423FB18186803F004
:100E90001BF802000B003A49AC20381804F0ACF9FA
:100EA000AC23FB1801220221180000F095FFD42387
:100EB000FB18186803F008F802000B002D49080021
:100EC00004F02EF93423FB181800FFF7A7FB0A20C3
:100ED00004F050F95BE02B4B01220121180000F0D7
:100EE0007BFF294B01220221180000F075FF6323CC
:100EF0005A421E4B1100180004F012F93423FB185B
:100F00001800FFF78BFB0A2004F034F9A023DB055F
:100F10005A69A023DB0540210A435A61A023DB055F
:100F20005A69A023DB0580210A435A612FE0C0469D
:100F30002DE0C04604850008188500080010024016
:100F4000108400082084000884D7E741BD6E111882
:100F500081B10041448B6CE7FBA9F33F308400086A
:100F60007B14AE47E17A743F44840008548400083F
:100F700058840008648300086484000878840008AA
:100F80008884000898840008AC840008C046A02328
:100F9000DB051A6980231B02134007D1C046A0233A
:100FA000DB051A6980231B021340F8D0A023DB0560
:100FB0001A698023DB0113401AD1C046A023DB0548
:100FC0001A698023DB011340F8D03E4B180004F06F
:100FD000A7F83D4B1B689B68180003F0B9F93B006C
:100FE0001822BA182C21791830203818FFF7F2FC93
:100FF000A023DB051A6980239B01134016D1C0464C
:10100000A023DB051A6980239B011340F8D0D0226E
:10101000BB181B68022B03D10023BA18136005E02C
:10102000D022BB181B680133BA181360A023DB055C
:101030001A6980235B0113401DD1C046A023DB0544
:101040001A6980235B011340F8D01F4B1B689B6813
:10105000180003F07DF91D4B180004F061F8CC2452
:101060003B191A683423FB1811001800FFF708FB1E
:1010700003003A191360A023DB051A6980231B01C2
:10108000134015D1C046A023DB051A6980231B013C
:101090001340F8D0D423FB181A68CC243B191968E4
:1010A0003423FB181800FFF713FA03003A191360F2
:1010B000054B1B689B68180003F04AF93220FFF7C4
:1010C000BDF8F7E5BC84000804000020E0840008B7
:1010D00080B582B000AF164B7B60164B3B6007E0DB
:1010E0007A68131D7B603B68191D396012681A60AD
:1010F0003A68114B9A42F3D304E03B681A1D3A60F8
:1011000000221A603A680D4B9A42F6D30C4B3B60B2
:1011100004E03B681A1D3A601B6898473A68094B1F
:101120009A42F6D3C046C046BD4602B080BDC04616
:10113000348B000800000020D40100209C02002015
:10114000348B0008348B000880B500AF3B4B1A6825
:101150003A4B01210A431A60C046384B1B680422EF
:101160001340FAD0354B0122DA60C046334BDB68BE
:101170000C221340042BF9D1314B1A68304B022159
:101180000A431A602E4B1A682D4B01210A431A603C
:101190002A4B9A6B294B802149050A439A63294BB4
:1011A000802212011A60C046264B5B681022134051
:1011B000FAD1224BDA68214B23490A40DA601F4BEF
:1011C000DA681E4B8821C9030A43DA601B4A1B4BAD
:1011D000D268DA60194A194BD268DA60174A174B9D
:1011E000D268DA60154B1A68144B18490A401A6025
:1011F000124B1A68114B802149040A431A60C046F9
:101200000E4B1A6880239B041340F9D00B4BDA680D
:101210000A4B03218A43DA60084BDA68074B032143
:101220000A43DA60C046054BDB680C2213400C2BE6
:10123000F9D1C046C046BD4680BDC0460010024040
:101240000020024000700040FFFF02FFFFFFFFFE92
:1012500080B500AF024B180000F008FAFEE7C04668
:101260005885000880B500AF024B180000F0FEF969
:10127000FEE7C0468885000890B585B000AF78606D
:101280003960184B1B68002B02D101235B4224E01C
:101290000023FB600AE0FB685A1CFA603A68D41825
:1012A000114B180000F0ADF9030023707B68013B7F
:1012B0001A00FB68934205D20B4B180000F0CCF9E2
:1012C000031EE8D1FB68002B06D03A68FB68D318F0
:1012D00000221A70FB6800E000231800BD4605B02C
:1012E00090BDC0466C020020D401002080B584B0BF
:1012F00000AF78603960224B1B68002B02D10123BC
:101300005B4238E07B683F2B0BDCC0461D4B18006E
:1013100000F0A2F903004022D21A7B689A42F5D36A
:1013200002E002235B4226E00023FB600BE03A6808
:10133000FB68D3181A78134B1100180000F030F92D
:10134000FB680133FB607B68FA689A42EFD30E4B6F
:101350001B68082213400DD10B4B1A680A4B082159
:101360000A431A60074B180000F04BF903001A00FB
:10137000054B9A6200231800BD4604B080BDC046EC
:101380006C020020200200200038014080B584B0AB
:1013900000AF786072B6C046454B00229A64444B59
:1013A0009A6C434B5A64424B5A6C414B1A64414B02
:1013B00000229A643F4B9A6C3E4B5A643D4B5A6CE8
:1013C0003C4B1A643C4B01221A603C4B00221A60D1
:1013D0003B4BDA6A3A4B01210A43DA62394BFB6034
:1013E0007968F86800F086FD0300FB60A023DB0548
:1013F0009A68A023DB058021C9020A439A60A023D2
:10140000DB055A68A023DB052F490A405A60A02358
:10141000DB051B682D4A1A40A023DB058021090348
:101420000A431A60A023DB055A6AA023DB0540218A
:101430000A435A62A023DB051B68254A1A40A023F1
:10144000DB05802189030A431A60A023DB055A6A61
:10145000A023DB058021C9000A435A62184B5A6B4E
:10146000174B8021C9010A435A631A4B1A68194B5A
:101470006C210A431A60174B00225A60154B002258
:101480009A60144BFA68DA60124B1A68114B01210A
:101490000A431A60104B1A680F4B802109050A4352
:1014A0001A6062B6C046C046BD4604B080BDC046A4
:1014B000D4010020200200206C02002070020020D5
:1014C000001002400048E801FFFDFFFFFFFFF3FFAF
:1014D000FFFFCFFF0038014000E100E080B500AF22
:1014E000084BDB698022134001D000F025F8054B42
:1014F000DB692022134001D000F006F8C046BD464B
:1015000080BDC0460038014080B500AF074B5B6A24
:10151000DAB2074B1100180000F042F8031E02D0A7
:10152000044B01221A60C046BD4680BD0038014010
:10153000D40100207002002080B500AF164B1800C7
:1015400000F08AF8031E08D0134B180000F059F879
:1015500003001A00114B9A621BE0104B1A680F4BE4
:1015600008218A431A600D4BDB694022134005D0E5
:101570000A4B1A6A094B40210A431A62074BDB697E
:101580008022134005D0054B9A69044B10210A4371
:101590009A61C046BD4680BD20020020003801404F
:1015A00080B582B000AF78600A00FB1C1A707B68BF
:1015B0001A6C7B685B6C9A4205D17B689B6C002B34
:1015C00001D0012319E072B6C0467B681B6C591C20
:1015D0007A6811647A68F91C0978D1547B689B6C2D
:1015E0005A1C7B689A647B681B6C402B02D17B6819
:1015F00000221A6462B6C04600231800BD4602B03D
:1016000080BD80B584B000AF78607B689B6C002B98
:1016100001D100231CE072B6C0467B685B6C591C8C
:101620007A6851640F22BA187968CB5C13707B68B2
:101630005B6C402B02D17B6800225A647B689B6CF8
:101640005A1E7B689A6462B6C0460F23FB181B784B
:101650001800BD4604B080BD80B582B000AF786090
:101660007B689B6C1800BD4602B080BD80B582B01F
:1016700000AF78600B4B1B68002B09D101235B4244
:101680000BE07B685A1C7A6019000120FFF72EFEE0
:101690007B681B78002BF4D100231800BD4602B0F4
:1016A00080BDC0466C02002080B582B000AF020051
:1016B000FB1D1A70FB1D19000120FFF717FEC04625
:1016C000BD4602B080BD80B500AF044B1800FFF7E7
:1016D00098FF03001800BD4680BDC046D40100201D
:1016E000B0B584B000AF786039601E4B1B68002B2A
:1016F00002D101235B4231E00023FB600B23FB1886
:1017000000221A7017E0C046174B1800FFF7A4FF1D
:10171000031EF9D00B257C19134B1800FFF771FF3E
:1017200003002370FB685A1CFA601A007B689B1840
:101730007A1912781A703B68013BFA689A4204DA07
:101740000B23FB181B780D2BDDD1FB68002B04DD70
:10175000FB687A68D31800221A70FB681800BD462F
:1017600004B0B0BD6C020020D401002090B583B05D
:1017700000AFFC1DFFF7A7FF03002370FB1D1B78C4
:101780001800FFF791FFFB1D1B781800BD4603B042
:1017900090BDB0B584B000AF78603960214B1B6854
:1017A000002B02D101235B4237E00023FB600B23B7
:1017B000FB1800221A701DE0C0461B4B1800FFF7F3
:1017C0004BFF031EF9D00B257C19174B1800FFF7B0
:1017D00018FF030023702C003B191B781800FFF73B
:1017E00063FFFB685A1CFA601A007B689B183A1961
:1017F00012781A703B68013BFA689A4204DA0B23AC
:10180000FB181B780D2BD7D1FB68002B04DDFB6880
:101810007A68D31800221A70FB681800BD4604B01D
:10182000B0BDC0466C020020D401002080B582B05B
:1018300000AF7860FEE780B582B000AF786001232A
:101840005B421800BD4602B080BD80B584B000AFD9
:10185000F860B9607A60044B0C221A6001235B4285
:101860001800BD4604B080BD8002002080B500AFE6
:10187000034B0B221A6001235B421800BD4680BD5A
:101880008002002080B582B000AF786039603B688C
:10189000802292015A6000231800BD4602B080BD2C
:1018A00080B500AF01231800BD4680BD80B582B071
:1018B00000AF78603960044B16221A6001235B4246
:1018C0001800BD4602B080BD8002002080B582B005
:1018D00000AF78603960044B1F221A6001235B421D
:1018E0001800BD4602B080BD8002002080B584B0E3
:1018F00000AFF860B9607A6000231800BD4604B0FC
:1019000080BD80B582B000AF786039603B688022CE
:1019100092015A6000231800BD4602B080BD80B518
:1019200082B000AF786001235B421800BD4602B070
:1019300080BD80B582B000AF7860044B02221A608F
:1019400001235B421800BD4602B080BD800200202A
:1019500080B582B000AF7860044B0A221A60012380
:101960005B421800BD4602B080BDC0468002002028
:1019700080B582B000AF78607B68022B01D801236C
:1019800003E0044B09221A6000231800BD4602B090
:1019900080BDC0468002002080B586B000AF786070
:1019A000124B7B61124B3B61124B1B68002B02D127
:1019B000104B7A691A600F4B1B68FB600D4B1A685D
:1019C0007B68D3183A699A4205D20B4B0C221A60F5
:1019D00001235B4206E0074B1A687B68D218054B6F
:1019E0001A60FB681800BD4606B080BD9C0200204E
:1019F000001000207C0200208002002080B588B00A
:101A000000AFF860B9607A600023BB61FB68002B0F
:101A100022D10023FB611AE0FFF755FE03001A00F4
:101A200017217B181A70BB685A1CBA607A18127892
:101A3000D2B21A70BB690133BB617B181B78DBB271
:101A40000A2B01D1BB690EE0FB690133FB61FA6926
:101A50007B689A42E0DB05E0054B09221A6001230E
:101A60005B4200E0BB691800BD4608B080BDC046BF
:101A70008002002080B586B000AFF860B9607A605F
:101A8000FB68013B012B11D800237B6109E0BB6897
:101A90005A1CBA601B781800FFF706FE7B690133F9
:101AA0007B617A697B689A42F1DB05E0054B09228C
:101AB0001A6001235B4200E07B681800BD4606B057
:101AC00080BDC0468002002080B582B000AF020019
:101AD000FB1D1A70FB1D1B781900104800F00AFA54
:101AE000030019000E4800F005FA03005A1E0D4BC2
:101AF0005A600C4B00229A600A4B05221A60C046BD
:101B0000084B1A6880235B021340F9D0054B002272
:101B10001A60C046BD4602B080BDC04640420F00BC
:101B20000048E80110E000E080B584B000AF7860C4
:101B30000023FB6015E00B23FB1800221A7008E05D
:101B4000FA20FFF7C1FF0B217B181A787B180132AE
:101B50001A700B23FB181B78032BF1D9FB68013398
:101B6000FB60FA687B689A42E5D3C046C046BD4632
:101B700004B080BD80B500AFA023DB055A69A02367
:101B8000DB0502210A435A612820FFF79DFFA023AD
:101B9000DB055A69A023DB0502218A435A61C0464E
:101BA000BD4680BD80B582B000AF0200FB1D1A703B
:101BB000FB1D1B785BB2002B08DAA023DB055A69FA
:101BC000A023DB0520210A435A6107E0A023DB059F
:101BD0005A69A023DB0520218A435A61FB1D1B782B
:101BE0004022134008D0A023DB055A69A023DB055F
:101BF00010210A435A6107E0A023DB055A69A0239C
:101C0000DB0510218A435A61FB1D1B7820221340FB
:101C100008D0A023DB055A69A023DB0508210A436D
:101C20005A6107E0A023DB055A69A023DB050821E0
:101C30008A435A61FB1D1B781022134008D0A02351
:101C4000DB055A69A023DB0504210A435A6107E03A
:101C5000A023DB055A69A023DB0504218A435A61CE
:101C6000FFF788FF2820FFF72FFFFB1D1B780822B6
:101C7000134008D0A023DB055A69A023DB052021EF
:101C80000A435A6107E0A023DB055A69A023DB055C
:101C900020218A435A61FB1D1B780422134008D07F
:101CA000A023DB055A69A023DB0510210A435A61F2
:101CB00007E0A023DB055A69A023DB0510218A4336
:101CC0005A61FB1D1B780222134008D0A023DB05BC
:101CD0005A69A023DB0508210A435A6107E0A023C3
:101CE000DB055A69A023DB0508218A435A61FB1DE5
:101CF0001B780122134008D0A023DB055A69A023DA
:101D0000DB0504210A435A6107E0A023DB055A6979
:101D1000A023DB0504218A435A61FFF72BFFC0464D
:101D2000BD4602B080BD80B582B000AF0200FB1D91
:101D30001A70A023DB055A69A023DB0501210A43A1
:101D40005A61FB1D1B781800FFF72CFF0220FFF7DC
:101D5000EBFEC046BD4602B080BD80B582B000AF8C
:101D60000200FB1D1A70A023DB055A69A023DB05C6
:101D700001218A435A61FB1D1B781800FFF712FFEF
:101D80000520FFF7D1FEC046BD4602B080BD80B53C
:101D900000AFA023DB055A69A023DB0502218A439B
:101DA0005A611420FFF7C0FE3320FFF7D6FF33201F
:101DB000FFF7D3FF3220FFF7D0FF2820FFF7CDFF3A
:101DC0000C20FFF7CAFF0120FFF7C7FF1420FFF721
:101DD000ABFEC046BD4680BD80B584B000AF786024
:101DE00008001100FB1C021C1A70BB1C0A1C1A7094
:101DF000FB1C1B78022B01D1C02300E080231800BC
:101E0000FFF7ABFF0520FFF78FFE0023FB6009E023
:101E1000FB687A68D3181B781800FFF784FFFB680B
:101E20000133FB60FB687A68D3181B78002BEFD175
:101E3000BB1C1B78002B09D005E02020FFF773FFA7
:101E4000FB680133FB60FB680F2BF6DDC046BD4627
:101E500004B080BD90B585B000AF78600C00100074
:101E60001900FB1C221C1A70BB1C021C1A707B1C64
:101E70000A1C1A70FB1C1B78012B06D10B23FB18C4
:101E8000BA1C1278803A1A7005E00B23FB18BA1CB2
:101E90001278403A1A700B23FB181B781800FFF7D2
:101EA0005CFF0520FFF740FE0023FB6009E0FB68B4
:101EB0007A68D3181B781800FFF735FFFB680133E9
:101EC000FB60FB687A68D3181B78002BEFD17B1C72
:101ED0001B78002B09D005E02020FFF724FFFB68CA
:101EE0000133FB60FB680F2BF6DDC046BD4605B035
:101EF00090BDC04603460B437FD4002243088B426B
:101F000074D303098B425FD3030A8B4244D3030B80
:101F10008B4228D3030C8B420DD3FF22090212BA45
:101F2000030C8B4202D31212090265D0030B8B42C1
:101F300019D300E0090AC30B8B4201D3CB03C01AAB
:101F40005241830B8B4201D38B03C01A5241430B86
:101F50008B4201D34B03C01A5241030B8B4201D376
:101F60000B03C01A5241C30A8B4201D3CB02C01AE1
:101F70005241830A8B4201D38B02C01A5241430A59
:101F80008B4201D34B02C01A5241030A8B4201D348
:101F90000B02C01A5241CDD2C3098B4201D3CB01EF
:101FA000C01A524183098B4201D38B01C01A52419E
:101FB00043098B4201D34B01C01A524103098B42A2
:101FC00001D30B01C01A5241C3088B4201D3CB008D
:101FD000C01A524183088B4201D38B00C01A524170
:101FE00043088B4201D34B00C01A5241411A00D220
:101FF00001465241104670475DE0CA0F00D0494289
:10200000031000D34042534000229C4603098B42F8
:102010002DD3030A8B4212D3FC22890112BA030A80
:102020008B420CD3890192118B4208D38901921102
:102030008B4204D389013AD0921100E08909C30987
:102040008B4201D3CB01C01A524183098B4201D389
:102050008B01C01A524143098B4201D34B01C01A74
:10206000524103098B4201D30B01C01A5241C308EC
:102070008B4201D3CB00C01A524183088B4201D35B
:102080008B00C01A5241D9D243088B4201D34B0076
:10209000C01A5241411A00D20146634652415B10B8
:1020A000104601D34042002B00D549427047634699
:1020B0005B1000D3404201B5002000F005F802BDDE
:1020C0000029F8D016E770477047C04684461000D4
:1020D00062468C461900634600E0C0461FB501F019
:1020E0002BF8002801D40021C8421FBD10B500F014
:1020F0007BFF4042013010BD10B501F01DF80028F3
:1021000001DB002010BD012010BDC04610B501F05C
:1021100013F8002801DD002010BD012010BDC046CD
:1021200010B500F0A3FF002801DC002010BD012045
:1021300010BDC04610B500F099FF002801DA00205C
:1021400010BD012010BDC046F0B54F464646D646EC
:102150004502C0B547000C1C6D0A3F0EC60F002F8C
:1021600000D170E0FF2F00D175E0EB008025ED0479
:102170001D43002399469A467F3F6002430A9846D2
:1021800063001B0EE40F002B4ED0FF2B46D04246BF
:10219000D0008022D2040243904600227F3B3100CF
:1021A000FF1A4B466140C9B213430F2B00D9B5E06B
:1021B0006E489B00C3589F4600239846260045461C
:1021C00092465346022B00D189E0032B00D19EE0BA
:1021D000012B18D03B007F33002B69DD6A0704D048
:1021E0000F222A40042A00D004352A0103D5604B6F
:1021F0001D403B008033FE2B00DD70E0AD016D0A19
:10220000D8B202E00E0000200025C0052843F607E2
:102210003043E0BCBA46B146A846F0BD4346002B69
:102220003FD10222FF3F03E04346002B2DD1012284
:1022300031004B466140C9B213430F2B34D84D488F
:102240009B00C3589F46002D13D104239946033B9E
:1022500000279A4691E7002D05D108239946063BB1
:10226000FF279A4689E70C239946093BFF279A46A0
:1022700083E7280001F082FF7627431F9D4000235B
:102280007F4299469A463F1A77E7404601F076FF2B
:102290004246431F9A4076235B4290461B1A002217
:1022A0007DE7FF2303227AE70E00FF200025ACE73D
:1022B0000120C01A1B28A6DC9E372A00BD40C24060
:1022C0006B1E9D4115436B0704D00F232B40042B3D
:1022D00000D004356B0144D50120002595E7FF208F
:1022E000002592E780250026FF20ED038DE70023DF
:1022F00098468020C003054209D04346034206D1D8
:10230000454605436D022600FF206D0A7DE78020CB
:10231000C00305436D02FF206D0A76E742466B015C
:102320005001834219D21B220025013F01261C00C7
:102330006D005B00002C01DB984201D81B1A35436D
:10234000013A002AF3D15A1E93411D433B007F33CB
:102350000E00002B00DD41E7AAE71A2201251B1A17
:10236000E4E7AD0100206D0A4FE7C046AC850008E8
:10237000FFFFFFF7EC850008F0B54F464646D6460E
:1023800044024500C0B5640A0F1C2D0EC60F002D77
:1023900000D18DE0FF2D00D192E0002380209946EE
:1023A0009A46E400C00404437F3D7802430A9846FD
:1023B0007B001B0EFF0F002B00D170E0FF2B00D124
:1023C00086E04246D00080227F3BED180023D204F5
:1023D000024390469C4631004B467940681C0F2BC7
:1023E0001CD8764A9B00D3589F4639004446E246A3
:1023F0005346022B0FD0032B00D1D7E0012B37D14E
:1024000000200024C0052043C9070843E0BCBA46A9
:10241000B146A846F0BDFF200024F3E7260C2404B3
:10242000220C44462404240C434627001B0C57432B
:1024300074435A435E4312193B0C9B189C4203D9C8
:1024400080225202944666443F041A043F0CD2197B
:102450009401671EBC411B0C920E9B1914439B01F7
:102460001C431B0100D49BE0012362081C40144361
:1024700002007F32002A64DD630704D00F2323406B
:10248000042B00D00434230103D502004C4B8032CE
:102490001C40FE2ABFDCA401640AD0B2B2E7434666
:1024A000002B3DD14A4601331A4391469C4692E7A0
:1024B000002C29D104239946033B00259A4674E752
:1024C000002C1BD108239946063BFF259A466CE752
:1024D0004346FF35002B0BD102234A461A4391464F
:1024E0009C4678E753463100022B00D083E792E701
:1024F00003234A461A4391469C466CE70C239946AF
:10250000093BFF259A4650E7200001F037FE76256B
:10251000431F9C4000236D4299469A462D1A44E77A
:10252000404601F02BFE4246431F9A4000232D1ADD
:1025300090469C46763D4EE780240021FF20E40330
:1025400060E701239B1A1B2B00DD59E722009E3018
:10255000DA4084401300621E94411C43630704D098
:102560000F232340042B00D0043463011AD501202B
:10257000002447E78020C003044209D043460342B9
:1025800006D14446044364023900FF20640A39E757
:102590008020C003044364023100FF20640A31E755
:1025A000280065E7A4010020640A2BE78020C0030F
:1025B00004436402FF20640A24E7C0462C86000816
:1025C000FFFFFFF7F8B5CE46474643025B0A4E02CF
:1025D000DA009446720A914645004A0080B52D0EF5
:1025E0001F00C40F120EC90FB609FF2A5BD00120CD
:1025F00041408C4239D0A81A00285ADD002A6AD0FE
:10260000FF2D00D1D9E08022D20416431B2800DC24
:10261000E9E001206346181A430100D4B4E08001C8
:102620008709380001F0AAFD05388740854200DCA3
:10263000CCE02D1AB5483840430704D00F2303409F
:10264000042B00D00430430100D4A0E06A1CFE2D0E
:1026500000D18DE08001470AD2B2D0053843E407AB
:102660002043C0BCB946B046F8BDA81A8046002831
:1026700045DD002A70D0FF2D00D19EE08023DB04D1
:102680001E4343461B2B00DCD2E001206044430183
:102690007AD50135FF2D6BD001239D4A03404008B8
:1026A00010401843C8E7002E20D08C4223D02800C9
:1026B000FF38002839D0571B002D00D09DE063461D
:1026C000002B00D1DBE07B1E012F00D10DE1FF2F9D
:1026D00071D01F0098E0002E00D1A7E0421E012813
:1026E00000D1E6E0FF2868D010008FE701204140CC
:1026F000A14200D07FE7FF2040428046A8444046E8
:10270000002838D0511B002D00D1AEE0FF2A00D1A7
:10271000DFE080236046DB04184384461B2900DC8D
:10272000D9E0012015008019B1E7FE206A1C104293
:1027300071D1002D00D0A6E06346002B00D1D9E076
:102740000022002E00D188E7981B430100D4E1E06D
:1027500063460C00F01A6FE7002E00D1B7E00200CC
:10276000013A012800D19CE0FF2826D0904688E756
:10277000FF22002771E7FE206A1C104264D0FF2A66
:10278000F6D0150066447008430700D056E7C3082A
:10279000FF2D12D05B025F0AEAB25EE76246002AB2
:1027A00000D196E0002E08D08022D203134204D03C
:1027B0004846104201D10C004B46002BD8D0802750
:1027C000FF031F437F02FF227F0A46E720233A00D0
:1027D000451B38000135EA405D1BA840431E984167
:1027E0000025104328E720231B1A32009E40C240D8
:1027F0003000431E984110430CE7FF2ADBD08023B2
:102800006046DB04184384461B2F56DD01200C0074
:102810001500301A00E763469F1B7B013DD4002F53
:1028200000D0FEE600240022002716E70500AFE7EF
:10283000320043464146DA4020235B1A9E40300076
:10284000431E9841104321E7002DA7D16346002B7A
:1028500059D00022002E00D1FFE630006044430131
:1028600092D52A4B013518408EE76346002B47D09E
:102870004B1E012915D0FF292BD019004EE70C0063
:102880004B463D0084E76246002A8BD1002E92D150
:1028900080270024FF22FF03DFE663460C00F71ABF
:1028A000BFE6300060440125430100D46CE70225F7
:1028B000F2E663460125981BAEE620236446604697
:1028C000FC40DF1BB840431E984120439FE70500B2
:1028D0005EE74B4671E7202365466046CD40591AB6
:1028E0008840431E984128431CE763460C0001259D
:1028F000F01A91E6002E95D00C004F460022ACE66F
:102900004B460D0044E74F460022A6E6FFFFFFFBC3
:10291000FFFFFF7D002800D036E7002400279CE65B
:1029200041024200C30F490A0020120E7E2A03DD35
:102930009D2A02DD094A981870478020000401434F
:10294000952A07DC9620821AD1404842002BF3D109
:102950000800F1E7963A9140F7E7C046FFFFFF7F96
:10296000F8B5002813D0C317C6185E40C40F300056
:1029700001F004FC9E2305001B1A962B0FDC08288F
:1029800001DD083DAE407602760AD8B202E00024AE
:1029900000200026C0053043E4072043F8BD992BF2
:1029A0000CDD05223100121AD1400A00010030006E
:1029B0001B318840411E884102431600052D12DC60
:1029C00031000D4F3940720709D00F2030400428E4
:1029D00005D004314A0102D59F2339405B1B890190
:1029E0004E0AD8B2D6E76A1F96403100024F3940EE
:1029F0007207F4D0E9E7C046FFFFFFFBF0B557468A
:102A00004E464546DE46E0B5814605000C034800CB
:102A100092461F0085B0240B400DCE0F002800D138
:102A200056E1D44B984200D172E16B0FE4001C4395
:102A300080231B0423439846CF4BED009B46002385
:102A40009946834400933C037B005046240B5B0D66
:102A5000FF0F002B00D11FE1C64A934200D162E173
:102A6000C549420F8C46E400594614438022634412
:102A70001204CB1A14439B46C200002033007B4053
:102A80009A464B460F2B27D8BC499B00CB589F46F4
:102A9000B246009B022B16D0032B00D18EE2012BF5
:102AA00000D0D9E000230024002552461B05234313
:102AB000D20713432800190005B0F0BCBB46B2464C
:102AC000A946A046F0BD00240025AA4BEDE7BA4672
:102AD000A04615000090DCE7444500D2C7E100D1D4
:102AE000C2E101235B429C462E0040460025E344A0
:102AF0002302140E1C431B0C994623041F0C1202C4
:102B000049460092019701F035FB02007A430B041D
:102B1000310C804619438A4207D901235B429C4607
:102B20000919E0448C4200D807E2881A494601F0AE
:102B300021FB09048C4631046646019A090C424384
:102B4000030031438A4204D90919013B8C4200D861
:102B5000EDE1881A424612041A4390464146009B12
:102B60000E041B0C1F000293009B360C1B04190C57
:102B70000B007343120C7E43039151437A431F0CA5
:102B8000BC4676186644B14203D9802149028C467E
:102B90006244310C8A1831041E04360C8E1990429E
:102BA00002D312D1B54210D24346591E009B9C4617
:102BB00065441F009D429B415B421B19C018844223
:102BC00000D2A0E100D19BE18846AE1BB542AD41E9
:102BD000801A6D42401B844200D1D5E1494601F084
:102BE000C9FA019A0B044243310C050019438A4289
:102BF00000D96CE1881A494601F0BCFA019A360402
:102C000042430904360C03000E43B24200D953E19B
:102C10000398B61A02002D041D43029F2B041B0CBF
:102C20005A437B439C46290C4843130C8444634419
:102C30007943984203D98020400284466144180CAD
:102C400012041B04120C41189B188E4200D2FFE0A4
:102C500000D1FAE001231D43494A5A44002A00DC0E
:102C6000AAE06B0700D03DE1ED084346DB0106D545
:102C70004246444B1A4090468022D2005A44424B6E
:102C80009A4200DD1FE743465B071D43434652055A
:102C90005C02240B530D08E75246224300D17BE02F
:102CA000002C00D1FAE0200001F068FA02000B3A93
:102CB0001D2301009B1A52460839DA408C40144308
:102CC00052468A40314B58449B4683440020D5E607
:102CD0004B462343984644D0002C00D1CEE0200040
:102CE00001F04CFA010002000B391D235B1A494622
:102CF0001000D940083884400B004D4623439846C5
:102D000085402348831A9B460023994600939AE600
:102D10004B46234398461DD108239946063B002580
:102D2000834600938FE65246224309D10223494647
:102D30001943184B89469C4600240220E3449DE633
:102D400003234A461A43134B91469C46524603209E
:102D5000E34493E60C239946093BA046834600933F
:102D600071E60423994600239B4601330025009316
:102D700069E6C046FF07000001FCFFFF6C86000803
:102D8000FF030000FFFFFFFEFE070000F30300004B
:102D90000DFCFFFF01F8FFFF494601231943894657
:102DA000002401206AE6002380249A4600258A4BED
:102DB00024037AE601256D4201239B1A382B00DD9E
:102DC00070E61F2B00DCBFE01F2149428A1A4146F2
:102DD000D1400A00202B04D04146804B5B449940EF
:102DE0000D436B1E9D4107232A431D0000241540FF
:102DF000134200D1D4E00F2100231140042900D157
:102E0000CBE0111D9142924152429B180A001902D7
:102E100000D4C2E001230024002546E68023414679
:102E20001B03194208D01C4206D11C432403BA4696
:102E30001500694B240B38E68024434624031C43C9
:102E40002403B246644B240B2FE6002B00D103E78A
:102E5000A619681EA64200D28DE08E4200D2A3E0E1
:102E600000D1B3E00500F5E6AA4200D939E64346B1
:102E7000DE0758086B081E43ED0739E6484601F0A7
:102E80007DF901000200153120321C2900DC2CE7FD
:102E90004B46083883400025984632E701F06EF92A
:102EA00003001A00153220301C2A00DC00E75446CB
:102EB000083B00229C4005E73619013BB44200D98B
:102EC000A6E6B24200D8A3E6831E3619A0E6091989
:102ED000013D8C4200D98DE68A4200D88AE6851EE3
:102EE000091987E60F232B40042B00D1BCE60523EC
:102EF0005B42AB429B4104355B42ED089844B4E62B
:102F0000AF4200D960E6824204D800D05CE6AE420F
:102F100000D859E602235B429C46009BE0449C4655
:102F200065449D429B415B421B19C0184DE68A4295
:102F300000D80EE6831E09190BE68A4200D8F4E594
:102F4000831E98460919F0E52549280059448D400B
:102F500042468A40691E8D414146D840D9400243CD
:102F60002A430B00510700D151E70F2111400429DA
:102F700000D046E74BE705008E4200D06AE6009A93
:102F8000934200D066E667E6164A5A44002A00DCFF
:102F900010E701230025984467E65D075B021C0BE0
:102FA000D2080023154380E50098023D420082428A
:102FB000BF417F423C1936190092DDE78024434629
:102FC00024031C432403044B240B6EE5009A9A420D
:102FD000EAD30500D3E7C046FF0700003E04000027
:102FE0001E040000FF030000F0B54E464546DE46D5
:102FF00057469046E0B517001A03120B05008446A9
:1030000019480E034C0091465A00DB0F9B46360BC5
:10301000640DC90F520D844219D0824210D0012094
:1030200094420ED14E450CD10120C44509D15945D9
:1030300017D0002C05D130002843431E984100E0F2
:103040000120F0BCBB46B246A946A046F0BD330005
:1030500001202B43F5D1A242F3D14B463B43F0D1A3
:10306000E2E70020EDE7C046FF070000F0B5474665
:10307000CE460400180016001B031B0B2D4D4A0002
:10308000994680B543000F03A446B0463F0B520D4E
:10309000C90F5B0DC00FAA4221D0AB4213D0002A4A
:1030A00022D13C43002B02D14D462E4322D0002C8E
:1030B00010D0814222D00220013908400138C0BC22
:1030C000B946B046F0BD4D462E4329D1002AF0D175
:1030D0003C43EED10028F2D101204042EFE73D0011
:1030E00025431DD19342EED0002BE2D14C4626431E
:1030F000DFD1E0E70020002CE1D0DCE79A420ADCD7
:10310000E8DB4F45D7D80ED000204F45D7D2002955
:10311000E2D00800D3E74342584140000138CEE7EF
:1031200002204042CBE7C445C5D80020C445C6D2E2
:10313000EDE7C046FF070000F0B54746CE46040065
:10314000180016001B031B0B2C4D4A00994680B536
:1031500043000F03A446B0463F0B520DC90F5B0D51
:10316000C00FAA420DD0AB4210D0002A27D13C4359
:10317000002B11D14D462E430ED10020002C15D02E
:103180000EE03D00254310D1934218D14D462E4309
:103190000BD1002A02D13C43002C0BD0814214D029
:1031A000022001390840013800E00220C0BCB946C5
:1031B000B046F0BD0028F9D101204042F6E7002BCF
:1031C000ECD14C462643E9D1EAE79A4204DD43427A
:1031D000584140000138E9E79A42EBDB4F45DFD820
:1031E00006D000204F45E1D20029E5D00800DDE7F8
:1031F000C445D5D80020C445D8D2F5E7FF07000064
:10320000F0B557464E464546DE46E0B598460C03B7
:103210004B000600924687B0240B5B0DCF0F002BAE
:1032200000D15CE1D94A934200D175E1420FE4003C
:103230001443802212041443D54AC50094466344C3
:103240000093002399469B46434642461E03D20FF5
:103250005B0050469046360B5B0D00D120E1CB4A17
:10326000934200D162E1CA49420F8C4600996344FF
:10327000F6008C46164380229C4412046346164393
:10328000C200002000930099434601318C46494614
:103290007B4001930F2926D8BE4B890059588F4691
:1032A000434601933400150083465B46022B16D03B
:1032B000032B00D103E2012B00D0CDE0002200243B
:1032C0000025019B12052243DB071A432800110049
:1032D00007B0F0BCBB46B246A946A046F0BD0024EC
:1032E0000025AA4AEDE7280C2D042D0C2B00110C0B
:1032F0001204120C5343984613002F00434399467F
:103300004F434F44BB4647460B003F0CBA4643432E
:10331000DA440293D14504D980277F02B9464B4451
:10332000029353461B0C9B4653461F0443461B0403
:103330001B0C98463B0043440493330C3604360C74
:103340009846330043439946434643432F009A46E9
:10335000434677435D43380C4D444519A94503D98D
:1033600080235B029946CA443F04280C3F0C2D047D
:10337000ED19270C2404240C0300200050437A4349
:1033800091463A0053440593030C9A464A436143DD
:1033900049445144AB44894503D980235B02994693
:1033A0004A4400040B0C000C09040918200099463B
:1033B000434670435C437E435F43030C9846A41925
:1033C00044444A440397A64204D980235B029846AA
:1033D000474403972304029E9A46059B5E44984601
:1033E000AE42AD4176188E4289410004000C504433
:1033F00040446D424719B846934649428946C34402
:10340000D94498428041A845AD41934592418945B0
:1034100089416D4240422843240C524249420A43AA
:10342000039B00198018C7184B46DC0D049B7502DE
:103430001D436A1E95414B46F60D7F0235435A02E5
:103440003C431543FB0100D41CE101216A080D40F7
:103450001543E207154364084F496144002900DC25
:10346000B0E06B0709D00F222A40042A05D02A1D9C
:10347000AA42AD416D4264191500E30104D58021D3
:10348000464AC90014406144454A914200DD26E79E
:103490006207ED08640249051543240B4A0D10E745
:1034A0005246324300D17FE0002E00D1DCE03000F4
:1034B00000F064FE02000B3A1D2301009B1A5246E5
:1034C0000839DA408E40164352468A40009B3549FF
:1034D000181A03008C46634400200093D3E62500AD
:1034E00005434AD0002C00D1B0E0200000F046FE99
:1034F000010002000B391D2310005B1A310035005A
:1035000008388440D94085400C432648831A0093EC
:10351000002399469B4697E60500254326D10822BD
:1035200000930223002491469B468DE65246009B61
:10353000324310D1154900268C4663444946009316
:1035400002231943894602209DE65B460197022B20
:1035500000D0ADE6C3E60D4A0320944663444A46D4
:10356000009303231A43914652468CE60C220093A3
:103570000323050091469B4666E6042399460023F3
:103580000093013300249B465EE6C046FF0700001F
:1035900001FCFFFFAC860008FF030000FFFFFFFEF9
:1035A000FE0700000DFCFFFF494601231943894631
:1035B0000026012067E6002380240025434A01936A
:1035C00024037EE60120401A382800DD76E61F2815
:1035D0005BDD1F2223005242511ACB4019002028E4
:1035E00003D03B4A6244944025436A1E95412A0019
:1035F0000A4307210D000024154011425BD00F2122
:1036000000241140042953D0111D9142924152428D
:10361000A4180A0023024BD501220024002550E6FD
:1036200080231B031C4209D01E4207D133431C03D5
:1036300043461500240B254A019342E680221203DB
:1036400014432403214A240B01973AE600F096FD27
:1036500001000200153120321C2900DC4BE7340048
:1036600008380025844050E700F088FD03001A0068
:10367000153220301C2A00DC1EE75646083B00228B
:103680009E4023E7009B9C46E6E6124922006144E7
:103690002E008D408A40C640691E8D4132432A4328
:1036A000C4405307B6D00F2111400429ACD1B1E773
:1036B00065076402240BD2081543002201E680222C
:1036C000120314432403014A240BFAE5FF07000008
:1036D0003E0400001E040000F8B557464E4645461D
:1036E000DE46E0B51E0017004A000B03520D5B0AD0
:1036F0009046420F1A43CD0FCD4C3103C300944680
:1037000070007A0F490AFF009A46B946400DF60F3D
:103710001143A04200D1B1E001225640B346B54268
:1037200000D188E04246121A002A00DCAEE00028F0
:1037300000D1C1E0BE48804500D151E180200004A5
:103740000143382A00DD7BE11F2A00DDEEE1202065
:103750003E00801A0C00D640D1408740624684402B
:10376000521A781E8741944634432743DC1BA342F8
:103770009B4162465B42D31A99464B461B0200D4DA
:1037800018E14B465802430A99464B46002B00D19C
:1037900037E1484600F0F2FC0100083920232200FE
:1037A00048465B1ADA4088408C40434610438845BF
:1037B00000DD36E1C91A4B1C1F2B00DDEAE0202298
:1037C0002600D21A01009440DE40D84000239140E8
:1037D000621E94418146984631430C43630709D0E9
:1037E0000F232340042B05D0231DA342A441644290
:1037F000A1441C004B461B0200D4DEE041468C4B2A
:103800000131994200D1E7E04B468A48E408034081
:10381000180049055B07400223434A0D040B1205BB
:10382000ED0722432A4318001100F0BCBB46B24604
:10383000A946A046F8BD4246121A002A52DD0028C9
:1038400000D19CE0A04500D1CAE0802000040143E3
:10385000382A00DD49E11F2A00DC97E110000E0044
:103860002038C640202A04D04020821A91400F43BD
:10387000B9464C46621E944134433AE10A003A4349
:1038800028D0B346B5422BD06B4A4244002A5DD0C3
:1038900042464446821A002C00D0F5E065461D439E
:1038A00000D19CE1551E012A00D1FBE1604CA242EF
:1038B00000D1BDE12A00F0E00800384300D1C3E0A8
:1038C000501E012A00D1A8E1594CA24200D187E044
:1038D000020036E701225640B346B54200D021E748
:1038E000554A4244002A00D1B5E042464446821A75
:1038F000002C00D138E14E4EB04200D1DEE18026EE
:10390000644636043443A446382A00DD96E11F2A73
:1039100000DD24E22026B41AA24664465646B4408E
:10392000A1461C004E46D440264334005646B340C0
:103930005E1EB3411C436346D340C918E419BC4220
:10394000BF417F42B94680468944D8E040463B4C5F
:103950000130204200D0B4E04046002800D044E1CD
:103960006046184300D190E10800384300D0AAE136
:103970006146DB0849070B436146CC0827E0080095
:10398000384361D0501E012A00D139E1A24227D02C
:1039900002005DE702001F39CA401100202B03D04E
:1039A0004022D31A98400443631E9C410023994649
:1039B00098460C43630700D012E74B464A46E4089A
:1039C0005B072343D408424619498A420ED0240398
:1039D0005205240B520D22E70A00002400231EE7A3
:1039E000DB086246520713436246D4081A0022439A
:1039F00000D1FCE180221203144324030C4A240B5F
:103A00000DE7200000F0BAFB010018311F2900DC8F
:103A1000C4E608388440434620000024884500DC82
:103A2000C8E6044A5B1A104098468146D6E6C0466E
:103A3000FF070000FFFF7FFF01F8FFFFFE07000008
:103A40000F437A1E974191E66146DB0849070B4315
:103A50006146CC08B8E74046D34C0130204200D044
:103A6000A2E04046002800D001E16046184300D1A2
:103A70005EE10800384300D05FE16146DB0849079A
:103A80000B436146CC08A2E7C84DA84200D1CFE065
:103A9000802564462D042C43A446382A56DC1F2A70
:103AA00000DDD1E020251E00AD1A6446AB40AC40DD
:103AB000D6405D1EAB41344323436446D440091BCA
:103AC00049E06046DC1B461AA342804140428146E1
:103AD00030004E46801B8146000276D44B4623437D
:103AE00000D052E60024002571E739430C00621E25
:103AF0009441E4189C429B415B42634499464B4687
:103B00001B0200D456E701239C46A84BE04498458D
:103B100038D04B46A64801220340180063081440E1
:103B20001C43C3071C434308994657E610000E0088
:103B30002038C640202A04D04020821A91400F43EA
:103B4000B9464F467A1E974137430FE662461A43FD
:103B500013005A1E9341FC1AA742BF417F42CB1B60
:103B600099465D46804608E666461E4300D1BEE0A3
:103B7000561E012A00D109E18C4CA24200D119E164
:103B80003200C1E642460024002348E620200C0013
:103B9000801A3E0087408440D640781E8741D1403D
:103BA00034433C438C44A4E7804A904200D1E9E08E
:103BB000DF199F429B4161445B42C918CC077F08D3
:103BC0004B08994680463C43F4E6FC1AA742BF41A5
:103BD00063467F42C91ACB1B99465D46D5E5FF086F
:103BE0004B075D463B43CC08EEE662461A4300D0E5
:103BF00082E00B003B431BD1802400252403F9E61F
:103C0000DC199C429B41614489465B4299444B4686
:103C10001B0244D401239846CCE6DC1B6246A34237
:103C20009B41511A5B42CB1A994601239846A4E561
:103C3000FF084B075D463B43CC08D7E662461A4374
:103C40001400631E9C4179E615006446203DEC405B
:103C5000A046202A05D040256446AA1A9440234352
:103C60009A465446631E9C414346234373E762468B
:103C70001A4323D00A003A4300D0A0E06246DB0892
:103C8000520713436246D408B0E60B003B4300D111
:103C900028E7FF084B075D463B43CC0897E6022325
:103CA000984636E7FC1AA742BF4163467F42C91ACD
:103CB000CB1B994601235D4698465EE54B07FF08FE
:103CC0003B43CC0892E6DC1B6046A342B641401A57
:103CD0007642801B8146000260D5FC1AA742BF4194
:103CE00063467F42C91ACB1B99465D4676E5FF08BD
:103CF0004B073B43CC0867E60A00DB083A4300D198
:103D00006FE66246520713436246D40880221203CC
:103D1000144207D0C808104204D15D460400FB08D5
:103D200049070B435A0FDB00DB08520713435DE6DC
:103D30004B07FF083B43CC0849E6DC199C429B41FA
:103D4000614489465B4299444B461B0200D431E6EC
:103D50004A46174B1A400123914698462AE6160018
:103D60006446203EF440A046202A05D04026644602
:103D7000B21A944023439A465446631E9C414346DC
:103D80001C43DBE502000024002348E5DC19BC42AB
:103D9000BF41614489467F42B94438E74B462343DB
:103DA00000D19FE606E6C046FE070000FF070000C0
:103DB000FFFF7FFFFF084B073B43CC0816E6624638
:103DC000DB08520713436246D408802212031442D0
:103DD00007D0C808104204D15D460400FB0849071B
:103DE0000B435A0FDB005207DB081343FEE50023A9
:103DF000014A1C0013E5C046FF0700000A0030B569
:103E0000134C530009030500090B00205B0DD20F72
:103E1000A34204DD0F48834202DD0F4BD01830BDB2
:103E20008020400301430D48C01A1F2808DD0C48BC
:103E3000C31AD9400B005842002AF0D11800EEE70F
:103E4000084CC540A446634499400B002B43F2E75D
:103E5000FE0300001D040000FFFFFF7F330400008D
:103E600013040000EDFBFFFF70B5002816D0C31748
:103E7000C5185D40C40F280000F080F9114A121ADD
:103E80000A2816DC03002E0015339E400B23181A57
:103E9000C54052052D032D0B530D03E000240023D4
:103EA000002500261B052B43E4072343300019009F
:103EB00070BD0B38854052052D0300262D0B530D88
:103EC000F0E7C0461E04000070B543004602C40F70
:103ED000FE201B0E591C750A08420CD0E0229200ED
:103EE00094466D07360B63441B053343E4072343B5
:103EF0002800190070BD002B14D1002D1BD0280004
:103F000000F03CF90A281CDC0B232E001B1ADE40B3
:103F1000030015339D400E4A3603121A5205360B24
:103F2000530DE1E7002D09D08022360B1203094B17
:103F30006D071643D8E700230026D5E70026054B7A
:103F4000D2E703000B3B9D402E000025E3E7C0466F
:103F500089030000FF07000002004B00F0B55B0D75
:103F60000C033D4E640A400F5F1CC90F0443D5008B
:103F700037420AD039481E18FE2E16DDFF200024D5
:103F8000C0052043C9070843F0BD002B06D12C43D0
:103F900026D005229201540AD8B2F1E72543EDD08C
:103FA0008020C0030443FF20EAE7002E1BDD9201BE
:103FB000531E9A41E4006D0F22432A43530748D011
:103FC0000F231340042B00D004328023DB04134062
:103FD0003FD0701CFE2ED1D09201540AC0B2CFE760
:103FE00000200024CCE73200173222DB80200004BE
:103FF00020431E24A41B1F2C1DDD02225242961BAF
:104000000200F2401600202C04D0154A9446634466
:10401000984005432A00531E9A4132430026530715
:10402000CED180241300E404012023402242D3D1C6
:10403000B0E70023ADE70B4A94462A00E2401400A3
:104040002A0063449A409840551EAA4102432243E5
:10405000E4E733009EE7C046FE07000080FCFFFF58
:10406000A2FCFFFF82FCFFFF002243088B4274D3B7
:1040700003098B425FD3030A8B4244D3030B8B4269
:1040800028D3030C8B420DD3FF22090212BA030C72
:104090008B4202D31212090265D0030B8B4219D353
:1040A00000E0090AC30B8B4201D3CB03C01A524173
:1040B000830B8B4201D38B03C01A5241430B8B42BB
:1040C00001D34B03C01A5241030B8B4201D30B03A4
:1040D000C01A5241C30A8B4201D3CB02C01A5241CB
:1040E000830A8B4201D38B02C01A5241430A8B428E
:1040F00001D34B02C01A5241030A8B4201D30B0277
:10410000C01A5241CDD2C3098B4201D3CB01C01A90
:10411000524183098B4201D38B01C01A524143099A
:104120008B4201D34B01C01A524103098B4201D388
:104130000B01C01A5241C3088B4201D3CB00C01AF5
:10414000524183088B4201D38B00C01A524143086D
:104150008B4201D34B00C01A5241411A00D2014692
:10416000524110467047FFE701B50020FDF7ACFF54
:1041700002BDC0460029F7D076E770471C21012315
:104180001B04984201D3000C10391B0A984201D33A
:10419000000A08391B09984201D30009043902A218
:1041A000105C40187047C04604030202010101017F
:1041B0000000000000000000F7B58B8905000C002E
:1041C0001A075FD44A68002A04DC0A6C002A01DC62
:1041D0000020FEBDE76A002FFAD0002280212E6861
:1041E0002A601A0049010A400B4234D0606DA3894D
:1041F0005B0706D56368C01A636B002B01D0236C84
:10420000C01A0200216A00232800E76AB847A18982
:10421000431C06D12B681D2B31D82C4ADA40D3071A
:104220002DD50023636023692360CB0405D5431C8F
:1042300002D12B68002B00D16065616B2E600029D4
:10424000C6D023004433994202D0280000F004FA7B
:1042500000206063BDE701232800216AB847431CA2
:10426000C5D12B68002BC2D01D2B01D0162B01D13C
:104270002E60ADE74023A2891343A381A9E7402321
:104280000B43FAE70F69002FA2D00A680F60D21B18
:10429000019200229B0700D14A69A260019B002B7A
:1042A00000DC95E73A002800019B216AA66AB04726
:1042B000002806DC40230120A28940421343A38149
:1042C00087E7019B3F181B1A0193E7E70100402095
:1042D0000B6970B505000C00002B02D100252800E9
:1042E00070BD002804D08369002B01D100F0C8F80C
:1042F000144B9C421BD16C680C22A35E002BEDD0AA
:10430000626ED20704D49B0502D4A06D00F094F92C
:1043100028002100FFF750FF636E0500DB07DED4A5
:10432000A3899B05DBD4A06D00F08CF9D7E7064B81
:104330009C4201D1AC68DFE7044B9C42DCD1EC68C5
:10434000DAE7C0460C8700082C870008EC860008D6
:10435000010010B5002805D1054B0649186800F08A
:1043600046F910BD044B1868FFF7B2FFF9E7C046E5
:104370004C870008D142000804000020002310B53B
:104380000400036043608360818143661900C28139
:1043900003614361836108225C3000F054F9054BEE
:1043A00024626362044BA362044BE362044B236305
:1043B00010BDC04639520008655200089D520008E1
:1043C000C952000810B5024900F011F910BDC046ED
:1043D000D1420008436E10B5DB0705D483899B05E5
:1043E00002D4806D00F028F9002010BD436E10B596
:1043F000DB0705D483899B0502D4806D00F022F988
:10440000002010BD70B568254A1E55430E002900D6
:10441000743100F08DF9041E08D000212A000160DB
:1044200046600C30A060683200F00DF9200070BDCD
:1044300010B5024B1868FFF7C5FF10BD4C87000888
:1044400010B5024800F0F8F810BDC0468A020020FE
:1044500010B5024800F0F6F810BDC0468A020020F0
:1044600010B5024800F0E8F810BDC0468B020020ED
:1044700010B5024800F0E6F810BDC0468B020020DF
:1044800013B50400FFF7ECFFA369002B02D0FFF780
:10449000EFFF13BDA364E3642365134B134A1B684A
:1044A000A2620193A34201D10123A361200000F085
:1044B0001FF86060200000F01BF8A060200000F0F2
:1044C00017F800220421E0606068FFF757FF01221F
:1044D0000921A068FFF752FF02221221E068FFF7CE
:1044E0004DFF0123A361D2E74C870008C5430008B4
:1044F000F8B50700FFF7A4FF1F4B1E68B369002B38
:1045000002D13000FFF7BCFF4836B4687368013B46
:1045100004D53368002B22D03668F6E70C22A55E5E
:10452000002D1AD12000154B5830E360656600F06D
:104530007FF8FFF78DFF2000082229002560A56085
:10454000656025616561A5615C3000F07CF865639C
:10455000A563A564E5642000F8BD6834D7E70421AD
:104560003800FFF74FFF041E3060D5D1FFF770FF12
:104570000C233B60EFE7C0464C8700080100FFFFBB
:1045800010B5FFF75DFF034B0349186800F014F8FE
:1045900010BDC04604000020D543000810B5044BF0
:1045A0000449186800F008F8FFF752FF10BDC04634
:1045B00004000020ED430008F7B548300400002651
:1045C0000191A5686768013F04D52468002CF8D1E3
:1045D0003000FEBDAB89012B07D90E22AB5E013343
:1045E00003D02800019B984706436835EBE7F7B5F1
:1045F000040006000027019148346368A568009311
:10460000009B013B009304D52468002CF5D13800B1
:10461000FEBDAB89012B08D90E22AB5E013304D05D
:1046200029003000019B984707436835E8E7704749
:1046300070477047704770477047012070470120EE
:1046400070477047704703008218934200D170474B
:1046500019700133F9E7000070B50500002910D08A
:104660000C1F2368002B00DAE418280001F04CFD31
:104670001D4A1368002B05D163601460280001F007
:104680004BFD70BDA34208D9216860188342F3D165
:1046900018685B6841182160EEE71A005B68002B20
:1046A00001D0A342F9D911685018A0420BD120685B
:1046B0000918501811608342E0D118685B684118EE
:1046C00011605360DAE7A04202D90C232B60D5E7D2
:1046D00021686018834203D118685B684118216023
:1046E00063605460CAE7C0469002002070B50F4E68
:1046F0000D0031680400002902D100F04FFD306048
:104700002900200000F04AFD431C0AD00323C51CE9
:104710009D43A84207D0291A200000F03FFD431C0A
:1047200001D101256D42280070BDC04694020020D1
:10473000F7B50322CB1C9343083306001F000C2B54
:1047400032D20C27B94231D8300001F0DDFC324DB5
:104750002B681C00002C2ED139003000FFF7C6FF5B
:104760000400431C1ED12C682500002D4AD123686B
:104770002900E3183000019300F010FD019B8342F3
:1047800043D123680337FF1A03239F4308370C2FB5
:1047900000D20C2739003000FFF7A8FF431C34D0AB
:1047A0002368DF19276013E0002BCBDA0C230025E8
:1047B00033602800FEBD2268D11B20D40B2917D9F5
:1047C000E2192760A34211D12A6063681160536027
:1047D0003000250001F0A0FC07220B35231D954376
:1047E000EA1A9D42E5D05B1BA350E2E75A60ECE772
:1047F0006268A34201D12A60EAE75A60E8E7230031
:104800006468A7E72C006D68AFE70C2330003360C5
:1048100001F082FCCDE7C04690020020F0B51E00FA
:10482000002314008BB09E4204DA8021090673181D
:104830001E002D23129A149F1370202303229F43DE
:10484000462F07D03B00453B59424B411099013A56
:10485000CB18109309AB049308AB0393139B0092FE
:104860000293109B22000193330000F0EDFD050040
:10487000472F02D1119BDB0728D5109BEB1807931C
:10488000462F14D12B78302B0CD10022002320008E
:104890003100FDF72BFC002804D10123109A9B1A4C
:1048A000139A1360139B079A1B68D318079300226F
:1048B000002320003100FDF719FC002801D0079BE0
:1048C00009933022099B07998B4206D32800099B44
:1048D000159A5B1B13600BB0F0BD591C09911A703F
:1048E000F0E7F0B5831C87B0039305000C002B2381
:1048F0000270002901DA4C4202336B70092C31DD61
:104900000A2704ABDE1D200039000196FDF7D8FB15
:10491000013E30312000317039000294FDF7EAFA8F
:10492000029B0400632BEEDC019B30349A1E1300C3
:104930000399147004A8073098420ED804AB0733CB
:1049400000209A4204D804AB0930C018019BC01A59
:10495000039B1818401B07B0F0BD1878013308708E
:104960000131E7E73023E418AB70281DEC70F1E764
:10497000F0B595B00C0009921E001A9D070001F0D9
:104980007FFB036818000C9300F0A4FC0023129333
:10499000237E07220A9323680E900D930D992B68AE
:1049A000C90547D59B1893431A0008322A601A6834
:1049B0005B68A264E3640122A36CE56C0B936B005B
:1049C0005B080F930B98A74B0F99524203F056FCCC
:1049D000002831D10122A34B0B980F995242FDF7C9
:1049E00095FB002828D10022002329000B98FDF711
:1049F00083FB002803D023002D2243331A700A9B27
:104A0000994D472B00D9994D03230D9A236101330A
:104A10009A43002322600B93099B210038000096E3
:104A200013AA00F0E7F9431C00D0A2E001204042A5
:104A300015B0F0BD0733B6E70B9A2B001000290024
:104A400003F01CFC00280BD0002D03DA23002D22DC
:104A500043331A700A9B864D472BD5D9854DD3E732
:104A600020220A99636891430F915A1C49D1073358
:104A7000636080230D9ADB0013430022069212AA82
:104A800005920A9A08A9049211AA0392232223608C
:104A90000193636852180292009338002B000B9A1E
:104AA000FFF7BCFE0F9B05001199472B08D1CB1CCB
:104AB00002DB6368994248DD0A9B023BDBB20A9342
:104AC0000A9B652B24D820001A000139503011911F
:104AD000FFF707FF129A0B9013182361012A02DCDB
:104AE0002268D20701D501332361232308AA9B182A
:104AF0001B78002B00D18FE723002D2243331A703F
:104B00008AE70F9A472AB4D1002BB2D10133AFE71D
:104B10000A9B662B1BD1636800290DDD2161002BE8
:104B200002D12268D20702D5013359182161119BA5
:104B3000A36500230B93D8E7002B03D10122216842
:104B4000114200D09A1C2261F1E767230A93119B5E
:104B5000129A934206DB22682361D207E7D501331C
:104B60002361E4E70121002B01DC4918C91A52181E
:104B7000E9E72268530507D423692A003800099918
:104B8000B047431C28D151E70A9B652B00D8E1E0D0
:104B9000A06CE16C00220023FDF7A8FA002831D0B8
:104BA00001233800344A0999B047431C00D13DE73E
:104BB000119B129A934202DB2368DB070CD5380065
:104BC0000E9B0C9A0999B0470025431C00D12DE794
:104BD000129B013BAB420ADC23689B0700D506E130
:104BE000139BE068984200DB22E7180020E72200D0
:104BF0000123380009991A32B047431C00D115E748
:104C00000135E5E7119B002B38DC012338001A4AF7
:104C10000999B047431C00D108E7119B129A13432E
:104C200002D12368DB07D7D50E9B38000C9A09996F
:104C3000B047431C00D1F9E600230A93119B0A9A5E
:104C40005B42934201DC129B97E72200012338006C
:104C500009991A32B047431C00D1E7E60A9B013399
:104C6000EBE7C046FFFFEF7F50870008548700083E
:104C7000588700085C87000860870008129AA36DB7
:104C80000A929A4200DD0A930A9B002B3CDC002327
:104C90000D930A9BDB43DB170F93A36D0F9A0B93C6
:104CA0000A9B13400B9AD31A0D9A934234DC119B42
:104CB000129A93423DDB2368DB073AD4129A0B9B8E
:104CC0001199D31A521A0A929A4200DD0A930A9B4A
:104CD000002B36DC0A9B0025DB43DB170B93119A74
:104CE000129B0B999B1A0A9A0A409B1AAB4200DC52
:104CF00072E722000123380009991A32B047431C99
:104D000000D193E60135EAE70A9B2A0038000999A9
:104D1000B047431CBBD189E6220001233800099922
:104D20001A32B047431C00D180E60D9B01330D932E
:104D3000B3E70E9B38000C9A0999B047431CBDD1CC
:104D400074E60B9B3800EA1809990A9BB047431C8C
:104D5000C0D16BE6129B012B02DC01231A4234D036
:104D600001232A0038000999B047431C00D15DE6B1
:104D70000E9B38000C9A0999B047431C00D155E6A8
:104D8000A06CE16C00220023FDF7B0F900281AD1D5
:104D9000129B6A1C013B38000999B047431C0ED195
:104DA00044E622000123380009991A32B047431C17
:104DB00000D13BE60135129B013BAB42F1DC220006
:104DC0000B9B5032DAE60025F5E72A00E3E72200E4
:104DD0000123380009991932B047431C00D125E658
:104DE0000135E368139A9B1AAB42F0DCF8E6002524
:104DF000F7E7C046F7B5150001938A680B690C0008
:104E00000090934200DA130022002B6043321278A4
:104E1000002A01D001332B6023689B0602D52B6842
:104E200002332B602268062317001F401A4227D046
:104E3000230043331B785A1E93412268920630D4D4
:104E4000220001990098089E4332B047431C25D0A8
:104E5000062320682A68E16800250340042B03D15B
:104E60008D1AEB43DB171D40A3682269934201DDD5
:104E70009B1AED180027BD4220D1002010E0013719
:104E8000E3682A689B1ABB42D2DD22000123019904
:104E90000098089E1932B047431CF0D101204042CF
:104EA000FEBD3020E1184331087021005A1C453105
:104EB0000978A218433202331170C1E7220001239E
:104EC00001990098089E1A32B047431CE6D001377A
:104ED000D1E70000F0B58BB006920A004332079389
:104EE000059004920A7E0C00109B782A07D8622A4B
:104EF00009D8002A00D1C1E0582A00D18CE0260050
:104F00004236327022E0100063381528F7D802F0DC
:104F10006FFE16001F00F6FFF6FFF6FFF6FF1F00FC
:104F2000F6FFF6FFF6FFF6FFA80036009A00F6FF40
:104F3000F6FFB900F6FF3600F6FFF6FF9E002600EA
:104F40001A684236111D1960136833700123A7E0F7
:104F5000086819680A1D05060BD50D681A60002D32
:104F600003DA2D23049A6D421370614B0A270393D1
:104F70001BE00D681A604106F1D52DB2EFE70D6810
:104F80001968081D18602E0601D50D6803E06D062E
:104F9000FBD50D68ADB2564B082703936F2A00D09E
:104FA00002372300002243331A706368A360002B8A
:104FB00003DB0422216891432160002D02D1049E6D
:104FC000002B0CD0049E28003900FFF7D3F8039B78
:104FD000013E5B5C33702B0005009F42F3D9082F24
:104FE00009D12368DB0706D563682269934202DC96
:104FF0003023013E3370049B9B1B2361079B2100E0
:1050000000930598069B09AAFFF7F4FE431C4CD1B8
:10501000012040420BB0F0BD45310A70344A039282
:105020001A68216820CA1A60080616D5CB0702D56F
:105030002023194321601027002DB2D1202322689C
:105040009A432260ADE7202209680A4322602200C9
:10505000782145321170274AE1E74806E6D5ADB21E
:10506000E4E71A680D68101D4969186013682E0678
:1050700001D5196002E06D06FBD519800023049E5E
:105080002361BBE71A68111D196016680021300002
:10509000626801F025F8002801D0801B6060636819
:1050A00023610023049A1370A8E72369320006994C
:1050B0000598079DA847431CAAD023689B0715D4D1
:1050C000099BE0689842A5DA1800A3E722000123B3
:1050D00006990598079E1932B047431C98D00135B0
:1050E000E368099A9B1AAB42F0DCE9E70025F7E791
:1050F00062870008738700080EB417B5041E04D039
:105100008369002B01D1FFF7BBF906AB2000059A9C
:10511000A168019301F030FF1EBC08BC03B0184722
:105120000FB40B4B13B51C68002C05D0A369002BE2
:1051300002D12000FFF7A4F905AB2000049AA16872
:10514000019301F019FF16BC08BC04B01847C04613
:105150000400002070B504000D00002804D083690D
:10516000002B01D1FFF78CF929002000A26802F082
:1051700049F870BD084B70B51C680500002C05D0BF
:10518000A369002B02D12000FFF77AF92900200043
:10519000A26802F037F870BD04000020002370B54B
:1051A000064D040008002B60FCF7F6FB431C03D1FE
:1051B0002B68002B00D0236070BDC0468002002009
:1051C0000CB400B59DB00291069109491EAB079140
:1051D0000491084904CB059102A9019301F096FDC1
:1051E0000023029A13701DB008BC02B01847C046D5
:1051F000FFFFFF7F0802FFFF0EB400B50B499CB014
:105200001DAB02900690079104910948094904CB0F
:105210000591006802A9019301F078FD0023029A2C
:1052200013701CB008BC03B01847C046FFFFFF7FD7
:10523000040000200802FFFF70B50C000E25495F36
:1052400002F034F8002803DB636D1B18636570BD42
:10525000A389024A1340A381F9E7C046FFEFFFFF8D
:1052600000207047F8B51F008B8905000C00160060
:10527000DB0505D50E23C95E0022022300F008FFDE
:10528000A389054A28001340A38132000E23E15E62
:105290003B0000F027F8F8BDFFEFFFFF70B50C00F2
:1052A0000E25495F00F0F4FEA389421C03D1054A94
:1052B0001340A38170BD802252011343A381606516
:1052C000F8E7C046FFEFFFFF10B50E23C95E00F000
:1052D0001DF810BD0023C25C0133002AFBD1581E0B
:1052E0007047000070B50400080011001A00002388
:1052F000054D2B60FCF7BEFB431C03D12B68002B34
:1053000000D0236070BDC04680020020002370B52D
:10531000064D040008002B60FCF78DFA431C03D1F6
:105320002B68002B00D0236070BDC0468002002097
:10533000F0B506000B69326987B0002003919A42EC
:1053400065DB013B9C0000930B00143305931B1994
:1053500004933300143302931C19049B27681B68C1
:1053600038005D1C29000193FEF77EFE0190AF42DC
:1053700024D30025AC460298059F08CF019A99B224
:1053800051431B0C534349190A0C9B18026889B2FC
:1053900092B26244521A01681D0C090C9BB2CB1ADE
:1053A00011145B18191492B21B041A43049B8C4607
:1053B00004C0BB42E1D22368002B30D030000399F7
:1053C00001F082F9002821DB30000024019B0399C1
:1053D0000133019314301431036820C99AB21419AF
:1053E000AAB2A21A1B0C2D0C14145B1B1B191C1443
:1053F00092B21B04134308C0049B8B42ECD2009B67
:10540000029A9B00D3181A68002A15D0019807B099
:10541000F0BD2368002B06D1009B013B0093029B4B
:10542000043CA342F5D3009B3361C7E71A68002A06
:1054300006D1009A013A0092029A043B9A42F5D3AF
:10544000009B3361E2E70000F0B59DB00292039348
:10545000029B039C08930994446A0700259D002C35
:105460000ED1102000F028FE021E786204D1EA213D
:10547000C74BC84802F006F8446084600460C4600A
:105480007B6A196800290AD05A68012393404A6050
:105490008B60380000F08CFE00227B6A1A60039B50
:1054A000002B20DA01232B60039B5B005B08099330
:1054B000099DB94BB84A2B40934217D1B74B249A58
:1054C00028031360029B000B184301D100F0BFFDBD
:1054D000B348269B0690002B02D0B24B269A13604D
:1054E00006981DB0F0BD00232B60E1E7089B099CE6
:1054F000129313941298139900220023FCF7F6FDDF
:10550000041E09D00123249A1360A74B0693269BFF
:10551000002BE5D0A54BE1E71AAB01931BAB009341
:105520003800129A139B01F0F7F96E000590760D82
:1055300000D17CE012981399139B9D4A1B031B0B0F
:105540001A4311009B4B1894F61800229A4BFEF751
:10555000C3F89A4A9A4BFDF753FE9A4A9A4B02F0C7
:1055600051FB040030000D00FEF77EFC974A984B7B
:10557000FDF746FE02000B002000290002F042FB6E
:1055800004000D00FEF73AFC0022029000232000E8
:105590002900FCF7B1FD00280BD00298FEF764FC4F
:1055A0002B002200FCF7A2FD43425841029B1B1A2C
:1055B000029301231693029B162B0FD8129813996E
:1055C000DA00844B9B181A685B68FCF795FD00288D
:1055D00049D0029B013B0293002316931A9B9E1B0A
:1055E00000230A933300013B0D9304D501239B1B39
:1055F0000A9300230D93029B002B36DB029A0D9B2E
:10560000944663440D93002315920E93229B01242C
:10561000092B64D8052B02DD0024043B2293229B36
:10562000981E032864D802F0D9FA293836581A9BF4
:105630001B9A9E18684BF218202A0FDD40239B1AF4
:105640009D40664B0298F318D840284302F034FE80
:105650000123634C013E0919189376E72023029831
:105660009B1A9840F2E71690B8E70A9B029A9B1A99
:105670000A9353420E9300231593C7E700230F9319
:10568000239B0C930793002B13DC01231A000C932C
:10569000079323920DE00123F1E70023239A0F9350
:1056A0009446029B63440C9301330793002B00DC68
:1056B00001230022786A42600432150014354168E3
:1056C0009D4219D9380000F02FFD0690002817D10F
:1056D000D5210200434B4900CBE60123DEE700233E
:1056E0000F942293013B0C93079300221333D0E7CE
:1056F00001230F93023BF6E7013141605200DCE7E2
:105700007B6A069A1A60079B0E2B00D9EBE0002CEF
:1057100000D1E8E0029B002B68DD1A000F212D4B21
:105720000A40D2009B181D685E68029B1C11022370
:105730001093029BDB050BD52B4B0C401A6A5B6A5E
:1057400012981399FDF75AF90323089009911093C1
:10575000254B1493002C08D1089809992A0033008E
:10576000FDF74CF9089009915CE001231C420BD035
:10577000109B280001331093149B31001A685B685A
:10578000FDF73EFD05000E00149B64100833E0E7B2
:1057900091870008A88700080000F07F0F2700000D
:1057A0008D870008908700086087000861870008DF
:1057B0000000F03F01FCFFFF0000F83F61436F6312
:1057C000A787D23FB3C8608B288AC63FFB799F501A
:1057D0001344D33FE08800083204000012040000A4
:1057E000000010FE26880008B888000802231093E5
:1057F000029B002B16D0129813995C420F23B64AD5
:105800002340DB00D3181A685B68FDF7F9FC01261A
:10581000002308900991B14D2411002C00D094E090
:10582000002B9FD1169B002B00D19BE0089C099D6B
:10583000002220002900AA4BFCF75EFC002800D1C2
:1058400090E0079B002B00D18CE00C9B002B46DDE9
:10585000029B0022200029005E1EA24BFDF7D0FC17
:10586000109B08900991013310930C9B1098089C91
:10587000099D1493FEF7F8FA22002B00FDF7C0FCF7
:105880000022994B02F0BEF910901191109A119BD1
:1058900008920993954A119B944663441793099380
:1058A000149B002B61D1002220002900904BFDF7B2
:1058B00013FF089A179B04000D00FCF731FC002829
:1058C00000D0AFE28B481199844661440B00200060
:1058D0002900089AFCF710FC002800D09FE2129BD8
:1058E000139C089309941B9B002B00DA72E1029A27
:1058F0000E2A00DD6EE1784BD2009B185C681B68B5
:105900000A930B94239B002B00DBF7E0079B002BF3
:1059100000DDF3E000D082E20A980B990022744B7C
:10592000FDF76EFC089A099BFCF704FC079E350006
:10593000002800D059E2069B069A013308933123D0
:105940001370029B0133029354E2344207D0109B40
:10595000013310932A686B68FDF752FC3300641022
:1059600008355AE7029E079B80E7149B0F995A1E41
:10597000594BD2009B181A685B68002951D000204F
:105980005D49FDF73BF8089A099BFDF7A5FE069ACD
:10599000069B94461793149B10901191634419939E
:1059A00029002000FEF72AFA1490FEF75DFA0200A3
:1059B0000B0020002900FDF78FFE179B179A01337B
:1059C0000893149B040030331370109A119B0D0040
:1059D000FCF792FB002875D122002B0000204049E3
:1059E000FDF77AFE109A119BFCF786FB002800D089
:1059F000D2E0199B089A934200D170E71098119950
:105A00000022384BFDF7FCFB364B10901191002221
:105A100020002900FDF7F4FB089B04000D001793FC
:105A2000BEE708980999FDF7EBFB069A069B94469A
:105A30000893149B1090119163441993290020003E
:105A4000FEF7DCF91790FEF70FFA02000B002000BA
:105A50002900FDF741FE179B089A3033137013009D
:105A6000199A013304000D00089393422CD1109829
:105A70001199069A149B94466344002208931E4B86
:105A800002F0C0F802000B0020002900FCF748FBE0
:105A9000002800D080E0109A119B00201649FDF7E5
:105AA0001BFE02000B0020002900FCF725FB00284C
:105AB00000D114E7089B1A00013A08921278302AA4
:105AC000F8D00893029655E00022064BFDF798FBAC
:105AD00004000D00B2E7C046E0880008B88800085E
